:100000000C942F010C9457010C9457010C94570138
:100010000C9457010C9457010C9457010C94570100
:100020000C9457010C9457010C94CF090C94FE0AC0
:100030000C9457010C9457010C9457010C945701E0
:100040000C9457010C9457010C9457010C945701D0
:100050000C9457010C9457010C9457010C94C4074D
:100060000C9457010C9457010C9457010C945701B0
:100070000C9457010C9457010C9457010C945701A0
:100080000C9457010C9457010C9457010C94570190
:100090000C9457010C9457010C9457010C94570180
:1000A0000C9457010C9457010C9457010403090454
:1000B0002203410072006400750069006E006F0049
:1000C00020004D006900630072006F0020002000D6
:1000D00020001803410072006400750069006E0082
:1000E0006F0020004C004C00430012010002000091
:1000F000004041233780000101020001120100028B
:10010000020000404123378000010102000100C1CC
:100110008081C1080B0002020201000904000001F5
:10012000020200000524001001052401010104243D
:10013000020605240600010705810310004009049A
:100140000100020A00000007050202400000070546
:10015000830240000005010902A1010901A10085F7
:100160000105091901290315002501950375018170
:10017000029501750581030501093009310938151A
:1001800081257F750895038106C0C005010906A178
:10019000018502050719E029E7150025017501957C
:1001A00008810295017508810395067508150025DB
:1001B000650507190029658100C0090402000103D3
:1001C00000000009210101000122650007058403E8
:1001D00040000100000000000000002A2B28000061
:1001E000000000000000000000000000000000000F
:1001F0000000002C9EB4A0A1A2A434A6A7A5AE36F0
:100200002D3738271E1F20212223242526B333B65D
:100210002EB7B89F8485868788898A8B8C8D8E8F30
:10022000909192939495969798999A9B9C9D2F3133
:1002300030A3AD350405060708090A0B0C0D0E0F97
:10024000101112131415161718191A1B1C1DAFB113
:10025000B0B50000C50480061B0A5F0C6A0D1124AE
:100260001FBECFEFDAE0DEBFCDBF11E0A0E0B1E00E
:10027000EAE1FEE102C005900D92A433B107D9F77F
:1002800011E0A4E3B1E001C01D92AF3AB107E1F77C
:1002900012E0CEE5D2E004C02297FE010E94070FD3
:1002A000C435D107C9F70E94F0080C940B0F0C94C9
:1002B0000000509A08958F929F92AF92BF92CF9272
:1002C000DF92EF92FF920F931F93CF93DF93EC0196
:1002D00038814981CBB088248394C828DBB02EEFC5
:1002E000D222DBB808858D81081B0D83E881F98156
:1002F0008181882311F420E004C0282F200F08F406
:100300002FEF832F942FFC01EB84122F2E2D129FA1
:10031000112D1124FD84AA81BB819C858A857E8153
:100320006C819884A984BF8050E040E030E020E0F8
:10033000E4C2892C801A082D8A2C871A782D8B2CE0
:10034000861A682D00141197CBB800C000C0002C8D
:1003500000C000C0002C17FFDBB8528144278894EE
:1003600020F022E02A95F1F721F022E02A95F1F71A
:100370000894002CDBB85111570F00C000C000C01A
:1003800000C0002CCBB800C000C0002C00C000C0D2
:10039000002C16FFDBB808F45FEF8894002C20F0E7
:1003A00022E02A95F1F721F022E02A95F1F708944E
:1003B000002CDBB890FD450F00C000C000C000C09D
:1003C000002CCBB800C000C0002C00C000C0002C26
:1003D00015FFDBB84795889491FD450F20F022E08A
:1003E0002A95F1F721F022E02A95F1F70894002CE4
:1003F000DBB84795889400C000C000C000C0002C46
:10040000CBB800C000C0002C00C000C0002C14FFFE
:10041000DBB892FD450F4795889420F022E02A959D
:10042000F1F721F022E02A95F1F70894002CDBB8CF
:1004300093FD450F00C000C000C000C0002CCBB829
:1004400000C000C0002C00C000C0002C13FFDBB8AF
:100450004795889494FD450F20F022E02A95F1F706
:1004600021F022E02A95F1F70894002CDBB847959B
:10047000889400C000C000C000C0002CCBB800C0F1
:1004800000C0002C00C000C0002C12FFDBB895FD9E
:10049000450F4795889420F022E02A95F1F721F046
:1004A00022E02A95F1F70894002CDBB896FD450F61
:1004B00000C000C000C000C0002CCBB800C000C00D
:1004C000002C00C000C0002C11FFDBB847958894B9
:1004D00097FD450F20F022E02A95F1F721F022E068
:1004E0002A95F1F70894002CDBB84795889400C052
:1004F00000C000C000C0002CCBB800C000C0002C61
:1005000000C000C0002C10FFDBB800C000C020F00D
:1005100022E02A95F1F721F022E02A95F1F70894DC
:10052000002CDBB800C000C000C000C000C0002C20
:10053000CBB800C000C0002C00C000C0002C47FF9A
:10054000DBB850813327889420F022E02A95F1F718
:1005500021F022E02A95F1F70894002CDBB8511124
:10056000560F00C000C000C000C0002CCBB800C0B7
:1005700000C0002C00C000C0002C46FFDBB808F40F
:100580005FEF8894002C20F022E02A95F1F721F00B
:1005900022E02A95F1F70894002CDBB880FD350F96
:1005A00000C000C000C000C0002CCBB800C000C01C
:1005B000002C00C000C0002C45FFDBB837958894A4
:1005C00081FD350F20F022E02A95F1F721F022E09D
:1005D0002A95F1F70894002CDBB83795889400C071
:1005E00000C000C000C0002CCBB800C000C0002C70
:1005F00000C000C0002C44FFDBB882FD350F3795EA
:10060000889420F022E02A95F1F721F022E02A9543
:10061000F1F70894002CDBB883FD350F00C000C053
:1006200000C000C0002CCBB800C000C0002C00C02F
:1006300000C0002C43FFDBB83795889484FD350F4C
:1006400020F022E02A95F1F721F022E02A95F1F737
:100650000894002CDBB83795889400C000C000C017
:1006600000C0002CCBB800C000C0002C00C000C0EF
:10067000002C42FFDBB885FD350F3795889420F0BC
:1006800022E02A95F1F721F022E02A95F1F708946B
:10069000002CDBB886FD350F00C000C000C000C0D4
:1006A000002CCBB800C000C0002C00C000C0002C43
:1006B00041FFDBB83795889487FD350F20F022E0A5
:1006C0002A95F1F721F022E02A95F1F70894002C01
:1006D000DBB83795889400C000C000C000C0002C73
:1006E000CBB800C000C0002C00C000C0002C40FFF0
:1006F000DBB8EF0DF11D8894002C20F022E02A9544
:10070000F1F721F022E02A95F1F70894002CDBB8EC
:1007100000C000C000C000C000C0002CCBB800C0AA
:1007200000C0002C00C000C0002C37FFDBB8518196
:100730001127889420F022E02A95F1F721F022E099
:100740002A95F1F70894002CDBB85111500F00C026
:1007500000C000C000C0002CCBB800C000C0002CFE
:1007600000C000C0002C36FFDBB808F45FEF8894AF
:10077000002C20F022E02A95F1F721F022E02A95C2
:10078000F1F70894002CDBB8E0FC150F00C000C0A6
:1007900000C000C0002CCBB800C000C0002C00C0BE
:1007A00000C0002C35FFDBB817958894E1FC150FCD
:1007B00020F022E02A95F1F721F022E02A95F1F7C6
:1007C0000894002CDBB81795889400C000C000C0C6
:1007D00000C0002CCBB800C000C0002C00C000C07E
:1007E000002C34FFDBB8E2FC150F1795889420F03D
:1007F00022E02A95F1F721F022E02A95F1F70894FA
:10080000002CDBB8E3FC150F00C000C000C000C026
:10081000002CCBB800C000C0002C00C000C0002CD1
:1008200033FFDBB817958894E4FC150F20F022E025
:100830002A95F1F721F022E02A95F1F70894002C8F
:10084000DBB81795889400C000C000C000C0002C21
:10085000CBB800C000C0002C00C000C0002C32FF8C
:10086000DBB8E5FC150F1795889420F022E02A9557
:10087000F1F721F022E02A95F1F70894002CDBB87B
:10088000E6FC150F00C000C000C000C0002CCBB8B3
:1008900000C000C0002C00C000C0002C31FFDBB83D
:1008A00017958894E7FC150F20F022E02A95F1F7C0
:1008B00021F022E02A95F1F70894002CDBB8179577
:1008C000889400C000C000C000C0002CCBB800C09D
:1008D00000C0002C00C000C0002C30FFDBB800C0FE
:1008E00000C020F022E02A95F1F721F022E02A95BD
:1008F000F1F70894002CDBB8002C109709F019CD03
:10090000DF91CF911F910F91FF90EF90DF90CF90EB
:10091000BF90AF909F908F9008951F93CF93DF93D8
:10092000382F492F809153018F5F87708093530137
:1009300080FD02C020E001C020E881FD206482FD2E
:100940002062122F105F832F942F9C01F901C0E0C9
:10095000D0E06285662331F080E091E070E00E9493
:10096000D00E6F5F6783212F269F212D11242483B2
:10097000662311F06150678321963196C330D1050B
:1009800041F7DF91CF911F91089508951F93CF9361
:10099000DF93C4E3D1E01FEF188319831A8384E542
:1009A00091E0609154010E94E30664E670E080E00B
:1009B00090E00E944008188219821A82239681E0F2
:1009C000C235D80749F7DF91CF911F910895EF9273
:1009D000FF920F931F93CF93DF93EC018B017A016A
:1009E0008091A701882309F04DC087EA91E00E9419
:1009F0000509892B09F446C01092990110929801BB
:100A00008FEF80939C0180939D0180939E01809342
:100A10009F018093A0018093A10181E08093A201B6
:100A20001092A4011092A30110929B0110929A01BE
:100A300080915B0190915C01892B31F486E991E012
:100A400090935C0180935B01E0915D01F0915E0108
:100A5000309721F086E991E09583848386E991E0DF
:100A600090935E0180935D011092A6011092A50102
:100A70008EE091E0909397018093960187EA91E050
:100A80000E940F0986E991E0BE01A80197010E942A
:100A90004F06DF91CF911F910F91FF90EF90089536
:100AA00084E391E06AE070E040E050E00E94E704F7
:100AB0000895AF92BF92CF92DF92EF920F931F9360
:100AC000DF93CF93CDB7DEB72E970FB6F894DEBF86
:100AD0000FBECDBF5C016A01F9011E2DDC011C9621
:100AE0009C917A8369835C834B8380818B8781812E
:100AF0008C8782818D87913029F4CE0101960E94E6
:100B00008D0406C01A86198618861F821E821D82D1
:100B100089819A81002311F420E002C0212F2D5FEA
:100B2000810F911D9A8389832E870E941A08F501EF
:100B300027853089621B730B6A307105B0F3F89416
:100B4000CE0101960E945B01B601882777FD809552
:100B5000982F20EF33E040E050E00E949D0E24E00B
:100B600096958795779567952A95D1F7E0E0F0E01F
:100B70009F014AE9C49E212DD49E200D311D1124D0
:100B800040E050E0260F371F481F591F293E83E0E1
:100B9000380780E0480780E0580790F1285E33402E
:100BA0004040504092E056954795379527959A9545
:100BB000D1F787E0289FE12D389FE00DF11D11242A
:100BC00080915201280F311D2E0F3F1F40916D0162
:100BD00050916E0160916F0170917001832F992780
:100BE000A0E0B0E0840F951FA61FB71F80936D0192
:100BF00090936E01A0936F01B09370012093520106
:100C000078940E941A08D50150967C936E931F9792
:100C10002E960FB6F894DEBF0FBECDBFCF91DF91F9
:100C20001F910F91EF90DF90CF90BF90AF900895FC
:100C3000EF92FF920F93DF93CF9300D00F92CDB737
:100C4000DEB7AB0119821A821B829E012F5F3F4FD4
:100C5000B90100E0EE24FF240E9459050F900F9087
:100C60000F90CF91DF910F91FF90EF900895EF9249
:100C7000FF920F9301E0EE24FF240E9459050F918B
:100C8000FF90EF900895EF92FF920F9300E0EE2413
:100C9000FF240E9459050F91FF90EF900895CF9285
:100CA000DF92EF92FF920F931F93CF93DF938C010C
:100CB0007B011216130624F06A01C0E0D0E002C0E6
:100CC0006901EA01D801ED91FC910480F581E02DE4
:100CD000C8010995CE01880F991F8C0F9D1F8E0D9D
:100CE0009F1DF80193838283C586D686C801DF9154
:100CF000CF911F910F91FF90EF90DF90CF900895CB
:100D00008FEF80935401109256011092550184EC9C
:100D100099E0A0E0B0E08093570190935801A09330
:100D20005901B0935A010895EF92FF920F931F93C8
:100D3000CF93DF93EC018091630190916401019660
:100D40009093640180936301019786179707A4F13C
:100D50000E940C089B01AC016091630170916401D9
:100D600088EE93E0FB01E89FB001E99F700DF89FCA
:100D7000700D1124882777FD8095982FE0905F01F2
:100D8000F090600100916101109162012E193F09FC
:100D9000400B510B0E94E30E3A83298310926401A9
:100DA000109263010E940C0860935F0170936001D0
:100DB0008093610190936201DF91CF911F910F9118
:100DC000FF90EF9008952F923F924F925F926F9213
:100DD0007F928F929F92AF92BF92CF92DF92EF92CB
:100DE000FF920F931F93DF93CF93CDB7DEB7299771
:100DF0000FB6F894DEBF0FBECDBF5C016F83F50167
:100E000083819481A581B6810097A105B10509F47C
:100E1000A3C00E941A08209165013091660140919B
:100E2000670150916801621B730B840B950BD50110
:100E300013962D913D914D915C9116976217730712
:100E40008407950708F088C0DACFF801F485FE839F
:100E5000D50111968D919C9112978436910510F4CD
:100E6000F8011486D801ED91FC911197828193814C
:100E70009D838C8312964D905C9013971D962D90B8
:100E80003C901E9719821A821B829F81992399F1A7
:100E900068017E010894E11CF11CD60116962C9184
:100EA000169719966C912223D9F06623C9F070E049
:100EB00080E090E06F5F7F4F8F4F9F4F30E040E0CA
:100EC00050E02F5F3F4F4F4F5F4F0E949D0EA40198
:100ED00093010E949D0EBC0188279927F70160832A
:100EE0000894C11CD11C0894E11CF11C88859985CB
:100EF000E816F90691F6C801B201A1019E012F5F23
:100F00003F4FAC81BD81FD0109958E81F801848739
:100F1000048115810115110509F097CFC50169E11B
:100F200070E00E94940629960FB6F894DEBF0FBEBB
:100F3000CDBFCF91DF911F910F91FF90EF90DF9088
:100F4000CF90BF90AF909F908F907F906F905F9069
:100F50004F903F902F9008950E941A08609365016A
:100F600070936601809367019093680100915B0123
:100F700010915C019F81692E772488249924DE01D9
:100F80001496B987A887C6CF1F920F920FB60F92FB
:100F900011242F933F938F939F93AF93BF9380918F
:100FA0006D0190916E01A0916F01B091700130912F
:100FB00071010196A11DB11D232F2D5F2D3720F04A
:100FC0002D570196A11DB11D2093710180936D01D4
:100FD00090936E01A0936F01B093700180916901AD
:100FE00090916A01A0916B01B0916C010196A11DD5
:100FF000B11D8093690190936A01A0936B01B09336
:101000006C01BF91AF919F918F913F912F910F9064
:101010000FBE0F901F9018958FB7F89420916D0117
:1010200030916E0140916F01509170018FBFB901F5
:10103000CA0108959FB7F8942091690130916A011F
:1010400040916B0150916C0186B5A89B06C08F3F03
:1010500021F02F5F3F4F4F4F5F4F9FBF542F432FC4
:10106000322F2227280F311D411D511D82E0220FF2
:10107000331F441F551F8A95D1F7B901CA0108953E
:101080009B01AC017FB7F8948091690190916A014E
:10109000A0916B01B0916C0166B5A89B05C06F3F34
:1010A00019F00196A11DB11D7FBFBA2FA92F982F4E
:1010B0008827860F911DA11DB11D62E0880F991F21
:1010C000AA1FBB1F6A95D1F7BC012DC0FFB7F894CA
:1010D0008091690190916A01A0916B01B0916C01BE
:1010E000E6B5A89B05C0EF3F19F00196A11DB11D03
:1010F000FFBFBA2FA92F982F88278E0F911DA11DF2
:10110000B11DE2E0880F991FAA1FBB1FEA95D1F716
:10111000861B970B885E9340C8F2215030404040B8
:10112000504068517C4F211531054105510571F63C
:101130000895789484B5826084BD84B5816084BD4F
:1011400085B5826085BD85B5816085BDEEE6F0E040
:10115000808181608083E1E8F0E01082808182609C
:101160008083808181608083E0E8F0E0808181601D
:101170008083E1E9F0E0808182608083808181600A
:101180008083E0E9F0E0808181608083E1ECF0E041
:10119000808184608083808182608083808181609F
:1011A0008083E3ECF0E0808181608083E0ECF0E01C
:1011B000808182608083E2ECF0E0808181608083C6
:1011C000EAE7F0E0808184608083808182608083B0
:1011D0008081816080838081806880830895089504
:1011E000CF93DF930E9499080E94EF088AE791E06D
:1011F0000E941C0A0E945005C0E0D0E00E94C60474
:101200002097E1F30E940000F9CFFC0120E030E0DC
:101210008081882311F421E030E0C9010895FC01A8
:1012200081E0808308959FB7F89487708093E900E8
:101230008091F2009FBF0895282F80917401882328
:10124000C1F057FF1AC015C0289A9093730180917E
:10125000F1008193E217F307B9F74115510539F011
:101260008091F200882319F48BE68093E800AFBFE9
:1012700002C04FEF5FEFCA010895AFB7F89427702F
:101280002093E9008091F200282F30E024173507E1
:101290000CF4A901FB019B01240F311D94E6DACF68
:1012A000DF93CF930F92CDB7DEB7BE016F5F7F4F55
:1012B00041E050E00E941C09019719F02FEF3FEF29
:1012C00003C08981282F30E0C9010F90CF91DF91B1
:1012D0000895FF920F931F93F82E142F052F40911E
:1012E000770150917801212F302FC901DC01FB01DA
:1012F0006EEF29C0F7FE02C0949101C09081209149
:1013000075013091760124173507ACF48091E8001F
:101310008570E1F38091E80082FF03C02FEF3FEF7B
:1013200017C09093F100C90101968F739070892BBB
:1013300011F46093E8002F5F3F4F309376012093C4
:101340007501119731961097A9F6812F902F9C0166
:10135000C9011F910F91FF9008959C018091E800B1
:1013600082FFFCCFF901260F311D03C08091F100EF
:101370008193E217F307D1F7289A84E680937301EB
:101380008BEF8093E800CB0108958093E900809172
:10139000F200882319F08AE38093E80008951F92F1
:1013A0000F920FB60F9211248F939F938091E100BB
:1013B0001092E100982F83FF0FC01092E90081E0A6
:1013C0008093EB001092EC0082E38093ED0010928A
:1013D000740188E08093F00092FF26C083E0809340
:1013E000E9008091F200882319F08AE38093E800F5
:1013F00080917201882351F0809172018150809315
:10140000720180917201882309F45D9880917301C3
:10141000882351F0809173018150809373018091F2
:101420007301882309F428989F918F910F900FBE24
:101430000F901F90189508951092740181E0809389
:10144000D70080EA8093D80082E189BD09B400FE0C
:10145000FDCF61E070E080E090E00E94400880E90C
:101460008093D8008CE08093E2001092E000559ABF
:10147000209A5D98289808955F926F927F928F923C
:101480009F92AF92BF92CF92DF92EF92FF920F9313
:101490001F93CF93DF93E82E842E752E80917401D5
:1014A000882371F18B01242F352FC901EC017AEFCC
:1014B000F72E67E0962E9E2050E4552E8E2D90E05C
:1014C00040E2A42EB12CA822B9223AE3632E20E4F4
:1014D000C22ED12CC822D9225CC09FB7F89490921A
:1014E000E9008091E80085FD02C020E004C0809101
:1014F000F200252D281B9FBF222361F4FA9419F4D2
:101500002FEF3FEF51C061E070E080E090E00E947B
:1015100040083FC0822F90E0C817D9070CF42C2F49
:101520004FB7F8949092E9008091E80085FF30C0B1
:10153000C21BD109A114B10421F406C01092F1001C
:1015400021502223D9F719C0E7FC03C0F801922FDC
:1015500010C0C801322F06C0FC010196E491E0934F
:10156000F10031503323C1F706C081918093F1001F
:1015700091509923D1F7020F111D8091E80085FF4A
:1015800005C0209729F4C114D10411F06092E8003D
:101590004FBF209709F0A1CF5D9A84E68093720136
:1015A000282D372DC9019C01C901DF91CF911F91D1
:1015B0000F91FF90EF90DF90CF90BF90AF909F90F2
:1015C0008F907F906F905F9008950F931F93DF939C
:1015D000CF930F92CDB7DEB719828E010F5F1F4FE9
:1015E000C8010E94CE0CC8010E94670E898190E05C
:1015F0000F90CF91DF911F910F9108951F920F923D
:101600000FB60F921124EF92FF921F932F933F93E7
:101610004F935F936F937F938F939F93AF93BF93FA
:10162000EF93FF93DF93CF93CDB7DEB76197DEBF24
:10163000CDBF1092E9008091E80083FF0FC1FE0149
:1016400031969E01275F3F4F03C08091F100819347
:10165000E217F307D1F7289A84E68093730182EFAB
:101660008093E800998197FF05C08091E80080FF92
:10167000FCCF03C08EEF8093E800292F30E0C90132
:1016800080769070892B09F0C2C08A81882329F462
:101690001092F1001092F100D6C0813009F4D3C04D
:1016A000833009F4D0C0853049F48091E80080FF90
:1016B000FCCF8B8180688093E300C5C0863009F041
:1016C0007CC01C81EF80F8841230C1F51092E900D3
:1016D00010927601109275011092780110927701A4
:1016E0000E94E50A99E0FE013996DF01292F1D923B
:1016F0002A95E9F799871A8791E09E8790E8988B59
:101700009AEF998B2091750130917601275F3F4FB9
:101710003C872B878D871092E900109276011092FA
:101720007501F0927801E092770180E0BF0149E015
:1017300050E00E9469090E94E50A85C01092E90004
:101740001092760110927501F0927801E092770183
:10175000123241F482E290E00E945F0E892B09F47C
:1017600076C071C0113079F488E0E816F10419F4FC
:1017700081E08093790180917901882309F06BC021
:10178000EAEEF0E013C0133009F061C08B818823CA
:1017900019F4ECEAF0E00AC0823019F4E0EBF0E072
:1017A00005C0813009F053C0E2EDF0E0449180E8DB
:1017B000BF0150E00E94690946C0873009F447C064
:1017C000883021F481E08093F1003DC08930D9F563
:1017D00023703070232BD9F5EFE0F1E091E031E098
:1017E00026E39093E9003093EB0084918093EC0022
:1017F0002093ED009F5F3196953099F78EE78093A7
:10180000EA001092EA008B81809374011CC08F81E2
:1018100098851092E90010927601109275019093CC
:101820007801809377018D81882329F4CE01019678
:101830000E94DA0C06C0823051F4CE0101960E945B
:10184000300D882321F08EEF8093E80007C081E2FD
:101850008093EB0003C0ECEFF0E0A8CF6196DEBF11
:10186000CDBFCF91DF91FF91EF91BF91AF919F914C
:101870008F917F916F915F914F913F912F911F9128
:10188000FF90EF900F900FBE0F901F901895DF9371
:10189000CF930F92CDB7DEB7FC016983A081B181F0
:1018A00012962D913C911397BE016F5F7F4F41E0DF
:1018B00050E0F90109950F90CF91DF9108951092B2
:1018C0007E0110927D0188EE93E0A0E0B0E080936D
:1018D0007F0190938001A0938101B09382018AE1FE
:1018E00091E090937C0180937B018FEF9FEF909329
:1018F0008801809387010895CF93DF93EC01809155
:101900000701882341F083E00E943C0A181619065B
:1019100014F49C0106C081E090E09B838A8320E060
:1019200030E0C901DF91CF91089583E00E94C5099D
:101930000895FC012485358537FD05C08FEF9FEFA5
:101940009587848704C082E00E9450099C01C901E8
:101950000895CF93DF93EC018C859D8597FF05C09B
:1019600082E00E9450099D878C878C859D85DF9140
:10197000CF910895FC018485958597FD08C082E08C
:101980000E941309282F30E02F5F3F4F05C082E0EF
:101990000E941309282F30E0C9010895FC018081BD
:1019A0008E5F808380E863E171E042E450E00E9452
:1019B00069090895FC0181819081913A59F481323D
:1019C00009F04CC080E060E071E047E050E00E9428
:1019D000690942C0913209F041C0803239F480E097
:1019E00091E067E070E00E94AD0936C0823209F0F4
:1019F00035C082818093070180910001909101019F
:101A0000A0910201B0910301805B9440A040B040DE
:101A100019F58091070180FD12C087E797E7909341
:101A20000108809300082BE088E190E00FB6F8945D
:101A3000A895809360000FBE209360000DC088E1E0
:101A40000FB6F89480936000109260000FBEA895C6
:101A5000109201081092000881E0089580E0089536
:101A6000FC0191818081813A31F4913089F080E0EC
:101A7000933089F40DC0813269F49B3021F4828166
:101A80008093080105C09A3029F48281809309016E
:101A900081E0089580E00895EF92FF920F931F93E5
:101AA0008C01E62EDC01ED91FC910480F581E02DA6
:101AB0000995F82ED801ED91FC910680F781E02D73
:101AC000C8016E2D09958F2D90E01F910F91FF9009
:101AD000EF9008951092890110928D0110928C015F
:101AE0008AE291E090938B0180938A010895EF92AE
:101AF000FF920F931F93DF93CF930F92CDB7DEB773
:101B000089838B017A0184E0BE016F5F7F4F41E0E2
:101B100050E00E943C0A84E4B801A7010E943C0AFC
:101B20000F90CF91DF911F910F91FF90EF9008954B
:101B300082E048E050E00E94770D0895FC01168293
:101B40001782108611861286138614823496BF017E
:101B50000E94980D0895DC01683810F0685829C07B
:101B6000E62FF0E067FF13C0E058F04081E090E01E
:101B700002C0880F991FEA95E2F7809514962C9180
:101B80001497282314962C93149760E012C0ED52FA
:101B9000FE4F6491662319F420E030E01DC067FF1A
:101BA00008C014968C9114978D7F14968C9314977B
:101BB0006F77FD0190E0662321F08681861709F496
:101BC00016829F5F31969630B1F7CD011496BD0114
:101BD0000E94980D21E030E0C9010895CF93DF9372
:101BE000DC01683810F0685825C0E62FF0E067FF88
:101BF00012C0E058F04081E090E002C0880F991FC9
:101C0000EA95E2F714962C911497282B14962C93AE
:101C1000149760E00FC0ED52FE4F64916623D9F136
:101C200067FF08C014968C911497826014968C9369
:101C300014976F7716968C9116978617A9F11796B9
:101C40008C911797861781F118968C9118978617A3
:101C500059F119968C911997861731F11A968C9132
:101C60001A97861709F11B968C911B978617E1F03E
:101C7000ED01E0E0F0E09E2F8E81882321F4EA0F51
:101C8000FB1F668306C09F5F31962196E630F10503
:101C900091F7963049F481E090E013969C938E93EF
:101CA000129720E030E007C0CD011496BD010E94DC
:101CB000980D21E030E0C901DF91CF91089580E8CF
:101CC00065E571E045E650E00E9469090895FC0170
:101CD00080818F5F808380E86AEB71E049E150E0AA
:101CE0000E9469090895CF92DF92EF92FF920F93BD
:101CF0001F93CF93DF937C016B018A01C0E0D0E09A
:101D00000FC0D6016D916D01D701ED91FC9101904D
:101D1000F081E02DC7010995C80FD91F015010406F
:101D20000115110571F7CE01DF91CF911F910F9130
:101D3000FF90EF90DF90CF900895629FD001739F46
:101D4000F001829FE00DF11D649FE00DF11D929F57
:101D5000F00D839FF00D749FF00D659FF00D992796
:101D6000729FB00DE11DF91F639FB00DE11DF91FBA
:101D7000BD01CF0111240895AA1BBB1B51E107C06F
:101D8000AA1FBB1FA617B70710F0A61BB70B881F0B
:101D9000991F5A95A9F780959095BC01CD0108959A
:101DA00097FB092E07260AD077FD04D0E5DF06D081
:101DB00000201AF4709561957F4F0895F6F790957D
:101DC00081959F4F0895A1E21A2EAA1BBB1BFD010E
:101DD0000DC0AA1FBB1FEE1FFF1FA217B307E4070A
:101DE000F50720F0A21BB30BE40BF50B661F771F62
:101DF000881F991F1A9469F7609570958095909542
:101E00009B01AC01BD01CF010895EE0FFF1F0590AE
:0A1E1000F491E02D0994F894FFCF3F
:101E1A0000E100000000000001010000000043068C
:101E2A0037065901180600000000470C7C0CBA0C52
:101E3A00990CA90C950C000000004C0D730EEE0DC8
:041E4A00AB0D9E0D31
:00000001FF
